{
  "contractName": "OutbreakTracking",
  "abi": [
    {
      "inputs": [
        {
          "internalType": "uint256",
          "name": "_radius",
          "type": "uint256"
        }
      ],
      "stateMutability": "nonpayable",
      "type": "constructor"
    },
    {
      "anonymous": false,
      "inputs": [
        {
          "indexed": true,
          "internalType": "address",
          "name": "individualAddress",
          "type": "address"
        },
        {
          "indexed": false,
          "internalType": "string",
          "name": "location",
          "type": "string"
        },
        {
          "indexed": false,
          "internalType": "uint256",
          "name": "timestamp",
          "type": "uint256"
        }
      ],
      "name": "NewInfection",
      "type": "event"
    },
    {
      "anonymous": false,
      "inputs": [
        {
          "indexed": false,
          "internalType": "string",
          "name": "location",
          "type": "string"
        },
        {
          "indexed": false,
          "internalType": "uint256",
          "name": "infectedCount",
          "type": "uint256"
        },
        {
          "indexed": false,
          "internalType": "uint256",
          "name": "timestamp",
          "type": "uint256"
        }
      ],
      "name": "PotentialOutbreak",
      "type": "event"
    },
    {
      "anonymous": false,
      "inputs": [
        {
          "indexed": true,
          "internalType": "address",
          "name": "user",
          "type": "address"
        },
        {
          "indexed": false,
          "internalType": "string",
          "name": "userLocation",
          "type": "string"
        },
        {
          "indexed": false,
          "internalType": "string",
          "name": "outbreakLocation",
          "type": "string"
        },
        {
          "indexed": false,
          "internalType": "uint256",
          "name": "distance",
          "type": "uint256"
        }
      ],
      "name": "ProximityAlert",
      "type": "event"
    },
    {
      "inputs": [
        {
          "internalType": "uint256",
          "name": "",
          "type": "uint256"
        }
      ],
      "name": "infectedIndividuals",
      "outputs": [
        {
          "internalType": "address",
          "name": "individualAddress",
          "type": "address"
        },
        {
          "internalType": "string",
          "name": "location",
          "type": "string"
        },
        {
          "internalType": "bool",
          "name": "testResult",
          "type": "bool"
        },
        {
          "internalType": "uint256",
          "name": "timestamp",
          "type": "uint256"
        }
      ],
      "stateMutability": "view",
      "type": "function",
      "constant": true
    },
    {
      "inputs": [
        {
          "internalType": "uint256",
          "name": "",
          "type": "uint256"
        }
      ],
      "name": "outbreakLocations",
      "outputs": [
        {
          "internalType": "string",
          "name": "location",
          "type": "string"
        },
        {
          "internalType": "uint256",
          "name": "infectedCount",
          "type": "uint256"
        },
        {
          "internalType": "uint256",
          "name": "timestamp",
          "type": "uint256"
        }
      ],
      "stateMutability": "view",
      "type": "function",
      "constant": true
    },
    {
      "inputs": [],
      "name": "outbreakRadius",
      "outputs": [
        {
          "internalType": "uint256",
          "name": "",
          "type": "uint256"
        }
      ],
      "stateMutability": "view",
      "type": "function",
      "constant": true
    },
    {
      "inputs": [],
      "name": "owner",
      "outputs": [
        {
          "internalType": "address",
          "name": "",
          "type": "address"
        }
      ],
      "stateMutability": "view",
      "type": "function",
      "constant": true
    },
    {
      "inputs": [
        {
          "internalType": "address",
          "name": "_individualAddress",
          "type": "address"
        },
        {
          "internalType": "string",
          "name": "_location",
          "type": "string"
        },
        {
          "internalType": "bool",
          "name": "_testResult",
          "type": "bool"
        }
      ],
      "name": "reportInfection",
      "outputs": [],
      "stateMutability": "nonpayable",
      "type": "function"
    },
    {
      "inputs": [
        {
          "internalType": "string",
          "name": "_newLocation",
          "type": "string"
        }
      ],
      "name": "checkProximity",
      "outputs": [
        {
          "internalType": "bool",
          "name": "",
          "type": "bool"
        },
        {
          "internalType": "string",
          "name": "",
          "type": "string"
        },
        {
          "internalType": "uint256",
          "name": "",
          "type": "uint256"
        },
        {
          "internalType": "uint256",
          "name": "",
          "type": "uint256"
        }
      ],
      "stateMutability": "view",
      "type": "function",
      "constant": true
    },
    {
      "inputs": [
        {
          "internalType": "string",
          "name": "_location",
          "type": "string"
        }
      ],
      "name": "reportNewLocation",
      "outputs": [],
      "stateMutability": "nonpayable",
      "type": "function"
    },
    {
      "inputs": [
        {
          "internalType": "uint256",
          "name": "_newRadius",
          "type": "uint256"
        }
      ],
      "name": "setOutbreakRadius",
      "outputs": [],
      "stateMutability": "nonpayable",
      "type": "function"
    },
    {
      "inputs": [],
      "name": "getInfectedCount",
      "outputs": [
        {
          "internalType": "uint256",
          "name": "",
          "type": "uint256"
        }
      ],
      "stateMutability": "view",
      "type": "function",
      "constant": true
    },
    {
      "inputs": [],
      "name": "getOutbreakLocationsCount",
      "outputs": [
        {
          "internalType": "uint256",
          "name": "",
          "type": "uint256"
        }
      ],
      "stateMutability": "view",
      "type": "function",
      "constant": true
    },
    {
      "inputs": [],
      "name": "getAllOutbreakLocations",
      "outputs": [
        {
          "internalType": "string[]",
          "name": "locations",
          "type": "string[]"
        },
        {
          "internalType": "uint256[]",
          "name": "counts",
          "type": "uint256[]"
        }
      ],
      "stateMutability": "view",
      "type": "function",
      "constant": true
    },
    {
      "inputs": [
        {
          "internalType": "string",
          "name": "_userLocation",
          "type": "string"
        },
        {
          "internalType": "uint256",
          "name": "_timeThreshold",
          "type": "uint256"
        }
      ],
      "name": "checkExposureRisk",
      "outputs": [
        {
          "internalType": "bool",
          "name": "exposed",
          "type": "bool"
        },
        {
          "internalType": "uint256",
          "name": "exposureCount",
          "type": "uint256"
        }
      ],
      "stateMutability": "view",
      "type": "function",
      "constant": true
    }
  ],
  "bytecode": "0x608060405234801561001057600080fd5b50604051611d9f380380611d9f83398101604081905261002f91610049565b600080546001600160a01b03191633179055600155610061565b60006020828403121561005a578081fd5b5051919050565b611d2f806100706000396000f3fe608060405234801561001057600080fd5b50600436106100b45760003560e01c80638d4c91eb116100715780638d4c91eb146101565780638da5cb5b14610178578063978086d81461018d578063a17fc4cc14610195578063c6ba94921461019d578063fdf81946146101b3576100b4565b8063032ee4ff146100b95780630eae1478146100e557806316c49432146100fa5780632c53d15f1461010f578063682753ea146101225780636a2abb2d14610135575b600080fd5b6100cc6100c73660046117e7565b6101d6565b6040516100dc949392919061185b565b60405180910390f35b6100f86100f33660046117e7565b6102a8565b005b6101026102e0565b6040516100dc9190611a7b565b6100f861011d366004611771565b6102e6565b6100f8610130366004611700565b61038b565b6101486101433660046117a4565b61071e565b6040516100dc929190611958565b6101696101643660046117e7565b610879565b6040516100dc939291906119c0565b61018061093b565b6040516100dc9190611847565b61010261094a565b610102610950565b6101a5610956565b6040516100dc929190611892565b6101c66101c1366004611771565b610b78565b6040516100dc949392919061192a565b600281815481106101e657600080fd5b6000918252602090912060049091020180546001820180546001600160a01b0390921693509061021590611c47565b80601f016020809104026020016040519081016040528092919081815260200182805461024190611c47565b801561028e5780601f106102635761010080835404028352916020019161028e565b820191906000526020600020905b81548152906001019060200180831161027157829003601f168201915b505050506002830154600390930154919260ff1691905084565b6000546001600160a01b031633146102db5760405162461bcd60e51b81526004016102d290611a53565b60405180910390fd5b600155565b60025490565b6000806000806102f585610b78565b9350935093509350831561038457336001600160a01b03167f3241732eb48b3a98b70671c4acc9893d11d7f7b74c7d748f5713f2491aa0f64a86858460405161034093929190611968565b60405180910390a27f43d0589161dae5f649f724507c70d8d7fe2459555a139a950169a5a23b2d5fd183834260405161037b939291906119c0565b60405180910390a15b5050505050565b801561071957604080516080810182526001600160a01b0385811682526020808301868152851515948401949094524260608401526002805460018101825560009190915283517f405787fa12a823e0f2b7631cc41b3ba8828b3321ca811111fa75cd3aa3bb5ace600490920291820180546001600160a01b031916919094161783559351805193949293610447937f405787fa12a823e0f2b7631cc41b3ba8828b3321ca811111fa75cd3aa3bb5acf019291909101906115cc565b50604082015160028201805460ff19169115159190911790556060909101516003909101556000805b6003548110156106465761053e6003828154811061049e57634e487b7160e01b600052603260045260246000fd5b906000526020600020906003020160000180546104ba90611c47565b80601f01602080910402602001604051908101604052809291908181526020018280546104e690611c47565b80156105335780601f1061050857610100808354040283529160200191610533565b820191906000526020600020905b81548152906001019060200180831161051657829003601f168201915b505050505085610d38565b15610634576003818154811061056457634e487b7160e01b600052603260045260246000fd5b60009182526020822060016003909202010180549161058283611c82565b919050555042600382815481106105a957634e487b7160e01b600052603260045260246000fd5b906000526020600020906003020160020181905550600191507f43d0589161dae5f649f724507c70d8d7fe2459555a139a950169a5a23b2d5fd1846003838154811061060557634e487b7160e01b600052603260045260246000fd5b90600052602060002090600302016001015442604051610627939291906119c0565b60405180910390a1610646565b8061063e81611c82565b915050610470565b508061070e57604080516060810182528481526001602080830182905242938301939093526003805491820181556000819052825180519394929091027fc2575a0e9e593c00f959f8c92f12db2869c3395a3b0502d05e2516446f71f85b01926106b392849201906115cc565b5060208201518160010155604082015181600201555050836001600160a01b03167f7a1e315751f5e15f66a98b93ce36829febd1d096f7ad8f2fecbc4f6c1e258f23844260405161070592919061199e565b60405180910390a25b61071783610d91565b505b505050565b60008042815b60025481101561087057846002828154811061075057634e487b7160e01b600052603260045260246000fd5b9060005260206000209060040201600301548361076d9190611be1565b11156107785761085e565b6000610841876002848154811061079f57634e487b7160e01b600052603260045260246000fd5b906000526020600020906004020160010180546107bb90611c47565b80601f01602080910402602001604051908101604052809291908181526020018280546107e790611c47565b80156108345780601f1061080957610100808354040283529160200191610834565b820191906000526020600020905b81548152906001019060200180831161081757829003601f168201915b5050505050600154610fc4565b509050801561085c57600194508361085881611c82565b9450505b505b8061086881611c82565b915050610724565b50509250929050565b6003818154811061088957600080fd5b90600052602060002090600302016000915090508060000180546108ac90611c47565b80601f01602080910402602001604051908101604052809291908181526020018280546108d890611c47565b80156109255780601f106108fa57610100808354040283529160200191610925565b820191906000526020600020905b81548152906001019060200180831161090857829003601f168201915b5050505050908060010154908060020154905083565b6000546001600160a01b031681565b60035490565b60015481565b600354606090819067ffffffffffffffff81111561098457634e487b7160e01b600052604160045260246000fd5b6040519080825280602002602001820160405280156109b757816020015b60608152602001906001900390816109a25790505b5060035490925067ffffffffffffffff8111156109e457634e487b7160e01b600052604160045260246000fd5b604051908082528060200260200182016040528015610a0d578160200160208202803683370190505b50905060005b600354811015610b735760038181548110610a3e57634e487b7160e01b600052603260045260246000fd5b90600052602060002090600302016000018054610a5a90611c47565b80601f0160208091040260200160405190810160405280929190818152602001828054610a8690611c47565b8015610ad35780601f10610aa857610100808354040283529160200191610ad3565b820191906000526020600020905b815481529060010190602001808311610ab657829003601f168201915b5050505050838281518110610af857634e487b7160e01b600052603260045260246000fd5b602002602001018190525060038181548110610b2457634e487b7160e01b600052603260045260246000fd5b906000526020600020906003020160010154828281518110610b5657634e487b7160e01b600052603260045260246000fd5b602090810291909101015280610b6b81611c82565b915050610a13565b509091565b6000606081806000198180805b600354811015610c0857600080610bd38b60038581548110610bb757634e487b7160e01b600052603260045260246000fd5b906000526020600020906003020160000180546107bb90611c47565b91509150818015610be357508581105b15610bf357809550829450600193505b50508080610c0090611c82565b915050610b85565b508015610d1357600160038381548110610c3257634e487b7160e01b600052603260045260246000fd5b906000526020600020906003020160000160038481548110610c6457634e487b7160e01b600052603260045260246000fd5b90600052602060002090600302016001015485828054610c8390611c47565b80601f0160208091040260200160405190810160405280929190818152602001828054610caf90611c47565b8015610cfc5780601f10610cd157610100808354040283529160200191610cfc565b820191906000526020600020905b815481529060010190602001808311610cdf57829003601f168201915b505050505092509650965096509650505050610d31565b50506040805160208101909152600080825295509350849250829150505b9193509193565b600081604051602001610d4b919061182b565b6040516020818303038152906040528051906020012083604051602001610d72919061182b565b6040516020818303038152906040528051906020012014905092915050565b60005b600354811015610fc057610e6260038281548110610dc257634e487b7160e01b600052603260045260246000fd5b90600052602060002090600302016000018054610dde90611c47565b80601f0160208091040260200160405190810160405280929190818152602001828054610e0a90611c47565b8015610e575780601f10610e2c57610100808354040283529160200191610e57565b820191906000526020600020905b815481529060010190602001808311610e3a57829003601f168201915b505050505083610d38565b15610e6c57610fae565b6000610f3560038381548110610e9257634e487b7160e01b600052603260045260246000fd5b90600052602060002090600302016000018054610eae90611c47565b80601f0160208091040260200160405190810160405280929190818152602001828054610eda90611c47565b8015610f275780601f10610efc57610100808354040283529160200191610f27565b820191906000526020600020905b815481529060010190602001808311610f0a57829003601f168201915b505050505084600154610fc4565b5090508015610fac577f43d0589161dae5f649f724507c70d8d7fe2459555a139a950169a5a23b2d5fd18360038481548110610f8157634e487b7160e01b600052603260045260246000fd5b90600052602060002090600302016001015442604051610fa3939291906119c0565b60405180910390a15b505b80610fb881611c82565b915050610d94565b5050565b6000806000610fd38686610fe3565b9384111596939550929350505050565b600080610fef8461119d565b90506000610ffc8461119d565b9050626136b8620f424060006110138260b4611b1f565b855161102290622fefd8611b1f565b61102c9190611add565b9050600061103b8360b4611b1f565b602087015161104d90622fefd8611b1f565b6110579190611add565b905060006110668460b4611b1f565b865161107590622fefd8611b1f565b61107f9190611add565b9050600061108e8560b4611b1f565b60208801516110a090622fefd8611b1f565b6110aa9190611add565b905060006110b88584611ba2565b905060006110c68584611ba2565b905060006110d588605a611b1f565b886110ee8a8e600001516110e99190611add565b6112b9565b6110f98b605a611b1f565b6111039190611ba2565b61110d9190611b1f565b6111179190611add565b90506000886111268b86611b1f565b6111309190611add565b9050600061113e8a80611b1f565b836111498d87611b1f565b6111539190611b1f565b61115d9190611add565b9050600061118761116e8380611b1f565b6111788580611b1f565b6111829190611a84565b6112d9565b9e50505050505050505050505050505092915050565b6111a5611650565b816000805b8251811015611208578281815181106111d357634e487b7160e01b600052603260045260246000fd5b6020910101516001600160f81b031916600b60fa1b14156111f657809150611208565b8061120081611c82565b9150506111aa565b506000811180156112255750600182516112229190611be1565b81105b6112415760405162461bcd60e51b81526004016102d290611a1c565b600061124f85600084611342565b9050600061128086611262856001611ac5565b60018688516112719190611be1565b61127b9190611be1565b611342565b9050600061128d8361142d565b9050600061129a8361142d565b604080518082019091529283526020830152509450505050505b919050565b6000808212156112d1576112cc82611c9d565b6112d3565b815b92915050565b60008082136112ea575060006112b4565b81600060026112fa836001611ac5565b6113049190611b0b565b9050815b8082101561133a57508060028161131f8186611b0b565b6113299190611ac5565b6113339190611b0b565b9150611308565b949350505050565b60608360008367ffffffffffffffff81111561136e57634e487b7160e01b600052604160045260246000fd5b6040519080825280601f01601f191660200182016040528015611398576020820181803683370190505b50905060005b8481101561142357826113b18288611ac5565b815181106113cf57634e487b7160e01b600052603260045260246000fd5b602001015160f81c60f81b8282815181106113fa57634e487b7160e01b600052603260045260246000fd5b60200101906001600160f81b031916908160001a9053508061141b81611c82565b91505061139e565b5095945050505050565b6000808290506000806000835111801561147a57508260008151811061146357634e487b7160e01b600052603260045260246000fd5b6020910101516001600160f81b031916602d60f81b145b15611486575060019050805b6000620f424081835b8651811015611598578681815181106114b857634e487b7160e01b600052603260045260246000fd5b6020910101516001600160f81b031916601760f91b14156114dc5760019150611586565b6000603088838151811061150057634e487b7160e01b600052603260045260246000fd5b0160200151611512919060f81c611bf8565b905060098160ff1611156115385760405162461bcd60e51b81526004016102d2906119e5565b8261155d5760ff811661154c86600a611b1f565b6115569190611a84565b9450611584565b611568600a85611add565b93506115778460ff8316611b1f565b6115819086611a84565b94505b505b8061159081611c82565b91505061148f565b50806115ae576115ab620f424084611b1f565b92505b84156115c0576115bd83611c9d565b92505b50909695505050505050565b8280546115d890611c47565b90600052602060002090601f0160209004810192826115fa5760008555611640565b82601f1061161357805160ff1916838001178555611640565b82800160010185558215611640579182015b82811115611640578251825591602001919060010190611625565b5061164c92915061166a565b5090565b604051806040016040528060008152602001600081525090565b5b8082111561164c576000815560010161166b565b600082601f83011261168f578081fd5b813567ffffffffffffffff808211156116aa576116aa611ce3565b604051601f8301601f1916810160200182811182821017156116ce576116ce611ce3565b6040528281528483016020018610156116e5578384fd5b82602086016020830137918201602001929092529392505050565b600080600060608486031215611714578283fd5b83356001600160a01b038116811461172a578384fd5b9250602084013567ffffffffffffffff811115611745578283fd5b6117518682870161167f565b92505060408401358015158114611766578182fd5b809150509250925092565b600060208284031215611782578081fd5b813567ffffffffffffffff811115611798578182fd5b61133a8482850161167f565b600080604083850312156117b6578182fd5b823567ffffffffffffffff8111156117cc578283fd5b6117d88582860161167f565b95602094909401359450505050565b6000602082840312156117f8578081fd5b5035919050565b60008151808452611817816020860160208601611c1b565b601f01601f19169290920160200192915050565b6000825161183d818460208701611c1b565b9190910192915050565b6001600160a01b0391909116815260200190565b6001600160a01b038516815260806020820181905260009061187f908301866117ff565b9315156040830152506060015292915050565b60006040820160408352808551808352606085019150602092506060838202860101838801855b838110156118e757605f198884030185526118d58383516117ff565b948601949250908501906001016118b9565b505085810384870152865180825290840192509050858301845b8281101561191d57815184529284019290840190600101611901565b5091979650505050505050565b600085151582526080602083015261194560808301866117ff565b6040830194909452506060015292915050565b9115158252602082015260400190565b60006060825261197b60608301866117ff565b828103602084015261198d81866117ff565b915050826040830152949350505050565b6000604082526119b160408301856117ff565b90508260208301529392505050565b6000606082526119d360608301866117ff565b60208301949094525060400152919050565b6020808252601f908201527f496e76616c69642063686172616374657220696e20636f6f7264696e61746500604082015260600190565b60208082526019908201527f496e76616c696420636f6f7264696e61746520666f726d617400000000000000604082015260600190565b6020808252600e908201526d139bdd08185d5d1a1bdc9a5e995960921b604082015260600190565b90815260200190565b600080821280156001600160ff1b0384900385131615611aa657611aa6611cb7565b600160ff1b8390038412811615611abf57611abf611cb7565b50500190565b60008219821115611ad857611ad8611cb7565b500190565b600082611aec57611aec611ccd565b600160ff1b821460001984141615611b0657611b06611cb7565b500590565b600082611b1a57611b1a611ccd565b500490565b60006001600160ff1b0381841382841380821686840486111615611b4557611b45611cb7565b600160ff1b84871282811687830589121615611b6357611b63611cb7565b858712925087820587128484161615611b7e57611b7e611cb7565b87850587128184161615611b9457611b94611cb7565b505050929093029392505050565b60008083128015600160ff1b850184121615611bc057611bc0611cb7565b6001600160ff1b0384018313811615611bdb57611bdb611cb7565b50500390565b600082821015611bf357611bf3611cb7565b500390565b600060ff821660ff841680821015611c1257611c12611cb7565b90039392505050565b60005b83811015611c36578181015183820152602001611c1e565b838111156107175750506000910152565b600281046001821680611c5b57607f821691505b60208210811415611c7c57634e487b7160e01b600052602260045260246000fd5b50919050565b6000600019821415611c9657611c96611cb7565b5060010190565b6000600160ff1b821415611cb357611cb3611cb7565b0390565b634e487b7160e01b600052601160045260246000fd5b634e487b7160e01b600052601260045260246000fd5b634e487b7160e01b600052604160045260246000fdfea26469706673582212204657317805f8360ec12babc35f5c07d9532144d24ff747da276b1919b64d5f0964736f6c63430008000033",
  "immutableReferences": {},
  "source": "// SPDX-License-Identifier: MIT\r\npragma solidity ^0.8.0;\r\n\r\ncontract OutbreakTracking {\r\n    address public owner;\r\n    uint256 public outbreakRadius; // in meters\r\n    \r\n    struct InfectedIndividual {\r\n        address individualAddress;\r\n        string location; // GPS coordinates in format \"latitude,longitude\"\r\n        bool testResult;\r\n        uint256 timestamp;\r\n    }\r\n    \r\n    struct OutbreakLocation {\r\n        string location;\r\n        uint256 infectedCount;\r\n        uint256 timestamp;\r\n    }\r\n    \r\n    struct Coordinate {\r\n        int256 latitude;  // Latitude in 6 decimal precision (multiply by 1e6)\r\n        int256 longitude; // Longitude in 6 decimal precision (multiply by 1e6)\r\n    }\r\n    \r\n    InfectedIndividual[] public infectedIndividuals;\r\n    OutbreakLocation[] public outbreakLocations;\r\n    \r\n    // Events for notifications\r\n    event NewInfection(address indexed individualAddress, string location, uint256 timestamp);\r\n    event PotentialOutbreak(string location, uint256 infectedCount, uint256 timestamp);\r\n    event ProximityAlert(address indexed user, string userLocation, string outbreakLocation, uint256 distance);\r\n    \r\n    modifier onlyOwner() {\r\n        require(msg.sender == owner, \"Not authorized\");\r\n        _;\r\n    }\r\n    \r\n    constructor(uint256 _radius) {\r\n        owner = msg.sender;\r\n        outbreakRadius = _radius;\r\n    }\r\n    \r\n    function reportInfection(address _individualAddress, string memory _location, bool _testResult) public {\r\n        // In a real implementation, this function might be restricted to authorized medical facilities\r\n        \r\n        if (_testResult) {\r\n            // Add to infected individuals\r\n            infectedIndividuals.push(InfectedIndividual({\r\n                individualAddress: _individualAddress,\r\n                location: _location,\r\n                testResult: _testResult,\r\n                timestamp: block.timestamp\r\n            }));\r\n            \r\n            // Check if this location is already marked as an outbreak area\r\n            bool locationExists = false;\r\n            for (uint256 i = 0; i < outbreakLocations.length; i++) {\r\n                if (compareLocations(outbreakLocations[i].location, _location)) {\r\n                    outbreakLocations[i].infectedCount++;\r\n                    outbreakLocations[i].timestamp = block.timestamp;\r\n                    locationExists = true;\r\n                    \r\n                    // Notify about increased infections at this location\r\n                    emit PotentialOutbreak(_location, outbreakLocations[i].infectedCount, block.timestamp);\r\n                    break;\r\n                }\r\n            }\r\n            \r\n            // If it's a new outbreak location\r\n            if (!locationExists) {\r\n                outbreakLocations.push(OutbreakLocation({\r\n                    location: _location,\r\n                    infectedCount: 1,\r\n                    timestamp: block.timestamp\r\n                }));\r\n                \r\n                // Notify about a new infection location\r\n                emit NewInfection(_individualAddress, _location, block.timestamp);\r\n            }\r\n            \r\n            // Check proximity to other outbreak locations and potentially merge them\r\n            checkAndMergeOutbreaks(_location);\r\n        }\r\n    }\r\n    \r\n    function checkProximity(string memory _newLocation) public view returns (bool, string memory, uint256, uint256) {\r\n        // Check if the new location is within the radius of any known outbreak\r\n        uint256 closestDistance = type(uint256).max;\r\n        uint256 closestIndex = 0;\r\n        bool foundInRadius = false;\r\n        \r\n        for (uint256 i = 0; i < outbreakLocations.length; i++) {\r\n            (bool inRadius, uint256 distance) = isWithinRadius(_newLocation, outbreakLocations[i].location, outbreakRadius);\r\n            \r\n            if (inRadius && distance < closestDistance) {\r\n                closestDistance = distance;\r\n                closestIndex = i;\r\n                foundInRadius = true;\r\n            }\r\n        }\r\n        \r\n        if (foundInRadius) {\r\n            return (true, outbreakLocations[closestIndex].location, outbreakLocations[closestIndex].infectedCount, closestDistance);\r\n        }\r\n        \r\n        return (false, \"\", 0, 0);\r\n    }\r\n    \r\n    function reportNewLocation(string memory _location) public {\r\n        // Check if the new location is within the radius of any known outbreak\r\n        (bool withinRadius, string memory outbreakLocation, uint256 infectedCount, uint256 distance) = checkProximity(_location);\r\n        \r\n        if (withinRadius) {\r\n            // This is a notification for users who are near an outbreak area\r\n            emit ProximityAlert(msg.sender, _location, outbreakLocation, distance);\r\n            emit PotentialOutbreak(outbreakLocation, infectedCount, block.timestamp);\r\n        }\r\n    }\r\n    \r\n    // Helper function to check if a new outbreak location should be merged with existing ones\r\n    function checkAndMergeOutbreaks(string memory _newLocation) internal {\r\n        // This would be implemented in a real system to merge nearby outbreak locations\r\n        // For simplicity, we'll just check for nearby outbreak locations\r\n        for (uint256 i = 0; i < outbreakLocations.length; i++) {\r\n            // Skip the new location itself\r\n            if (compareLocations(outbreakLocations[i].location, _newLocation)) {\r\n                continue;\r\n            }\r\n            \r\n            (bool inRadius, ) = isWithinRadius(outbreakLocations[i].location, _newLocation, outbreakRadius);\r\n            if (inRadius) {\r\n                // We found a nearby outbreak location\r\n                // In a real system, we might merge these locations or create a \"hot zone\"\r\n                emit PotentialOutbreak(_newLocation, outbreakLocations[i].infectedCount, block.timestamp);\r\n            }\r\n        }\r\n    }\r\n    \r\n    // Parse a coordinate string into a Coordinate struct\r\n    function parseCoordinate(string memory _location) internal pure returns (Coordinate memory) {\r\n        bytes memory locationBytes = bytes(_location);\r\n        \r\n        // Find the comma separator\r\n        uint256 commaIndex = 0;\r\n        for (uint256 i = 0; i < locationBytes.length; i++) {\r\n            if (locationBytes[i] == ',') {\r\n                commaIndex = i;\r\n                break;\r\n            }\r\n        }\r\n        \r\n        require(commaIndex > 0 && commaIndex < locationBytes.length - 1, \"Invalid coordinate format\");\r\n        \r\n        // Parse latitude and longitude as strings\r\n        string memory latStr = substring(_location, 0, commaIndex);\r\n        string memory lonStr = substring(_location, commaIndex + 1, locationBytes.length - commaIndex - 1);\r\n        \r\n        // Convert strings to integers (with 6 decimal precision)\r\n        int256 latitude = parseCoordinateValue(latStr);\r\n        int256 longitude = parseCoordinateValue(lonStr);\r\n        \r\n        return Coordinate(latitude, longitude);\r\n    }\r\n    \r\n    // Extract substring from a string\r\n    function substring(string memory str, uint256 startIndex, uint256 length) internal pure returns (string memory) {\r\n        bytes memory strBytes = bytes(str);\r\n        bytes memory result = new bytes(length);\r\n        \r\n        for (uint256 i = 0; i < length; i++) {\r\n            result[i] = strBytes[startIndex + i];\r\n        }\r\n        \r\n        return string(result);\r\n    }\r\n    \r\n    // Parse a decimal coordinate value to int256 with 6 decimal precision\r\n    function parseCoordinateValue(string memory str) internal pure returns (int256) {\r\n        bytes memory strBytes = bytes(str);\r\n        bool isNegative = false;\r\n        uint256 startIndex = 0;\r\n        \r\n        // Check for negative sign\r\n        if (strBytes.length > 0 && strBytes[0] == '-') {\r\n            isNegative = true;\r\n            startIndex = 1;\r\n        }\r\n        \r\n        int256 result = 0;\r\n        int256 decimalMultiplier = 1000000; // 6 decimal places precision\r\n        bool foundDecimal = false;\r\n        \r\n        for (uint256 i = startIndex; i < strBytes.length; i++) {\r\n            if (strBytes[i] == '.') {\r\n                foundDecimal = true;\r\n                continue;\r\n            }\r\n            \r\n            uint8 digit = uint8(strBytes[i]) - 48; // ASCII to number\r\n            require(digit <= 9, \"Invalid character in coordinate\");\r\n            \r\n            if (!foundDecimal) {\r\n                result = result * 10 + int256(uint256(digit));\r\n            } else {\r\n                decimalMultiplier /= 10;\r\n                result = result + int256(uint256(digit)) * decimalMultiplier;\r\n            }\r\n        }\r\n        \r\n        if (!foundDecimal) {\r\n            result *= 1000000; // If no decimal was found, multiply by 10^6\r\n        }\r\n        \r\n        if (isNegative) {\r\n            result = -result;\r\n        }\r\n        \r\n        return result;\r\n    }\r\n    \r\n    // Helper functions\r\n    function compareLocations(string memory loc1, string memory loc2) internal pure returns (bool) {\r\n        // Simple string comparison - returns true if the coordinates are exactly the same\r\n        return keccak256(abi.encodePacked(loc1)) == keccak256(abi.encodePacked(loc2));\r\n    }\r\n    \r\n    function isWithinRadius(string memory loc1, string memory loc2, uint256 radius) internal pure returns (bool, uint256) {\r\n        // Calculate the distance between two GPS coordinates using the Haversine formula\r\n        uint256 distance = calculateDistance(loc1, loc2);\r\n        \r\n        // Check if the distance is within the specified radius\r\n        return (distance <= radius, distance);\r\n    }\r\n    \r\n    // Implementation of the Haversine formula to calculate distance between two GPS coordinates\r\n    function calculateDistance(string memory loc1, string memory loc2) internal pure returns (uint256) {\r\n        Coordinate memory coord1 = parseCoordinate(loc1);\r\n        Coordinate memory coord2 = parseCoordinate(loc2);\r\n        \r\n        // Earth radius in meters\r\n        uint256 earthRadius = 6371000;\r\n        \r\n        // Convert latitude and longitude from millionths to radians\r\n        // We're working with fixed point math where 1 = 1e6\r\n        int256 precision = 1000000;\r\n        \r\n        // Convert lat1 to radians (lat1 * PI / 180)\r\n        int256 lat1Rad = (coord1.latitude * 3141592) / (180 * precision);\r\n        int256 lon1Rad = (coord1.longitude * 3141592) / (180 * precision);\r\n        int256 lat2Rad = (coord2.latitude * 3141592) / (180 * precision);\r\n        int256 lon2Rad = (coord2.longitude * 3141592) / (180 * precision);\r\n        \r\n        // Calculate differences\r\n        int256 dLat = lat2Rad - lat1Rad;\r\n        int256 dLon = lon2Rad - lon1Rad;\r\n        \r\n        // Haversine formula components\r\n        // a = sin(dLat/2) + cos(lat1) * cos(lat2) * sin(dLon/2)\r\n        // Since we don't have sin/cos functions in Solidity,\r\n        // we'll use a simplified Pythagorean approximation for small distances\r\n        \r\n        // For small distances on Earth, we can use an approximation:\r\n        // distance  ((dLat*R) + (dLon*R*cos(lat)))\r\n        \r\n        // Approximate cos(lat) as 1 at equator, 0 at poles\r\n        // cos(lat)  (90 - |lat|) / 90\r\n        int256 cosLat1 = ((90 * precision) - abs(coord1.latitude / precision)) * precision / (90 * precision);\r\n        \r\n        // Calculate x and y components of distance\r\n        int256 x = dLat * int256(earthRadius) / precision;\r\n        int256 y = dLon * int256(earthRadius) * cosLat1 / (precision * precision);\r\n        \r\n        // Calculate distance using the Pythagorean theorem\r\n        uint256 distance = uint256(sqrt((x * x + y * y)));\r\n        \r\n        return distance;\r\n    }\r\n    \r\n    // Simple absolute value function for int256\r\n    function abs(int256 x) internal pure returns (int256) {\r\n        return x >= 0 ? x : -x;\r\n    }\r\n    \r\n    // Square root function using Newton's method for uint256\r\n    function sqrt(int256 x) internal pure returns (int256) {\r\n        if (x <= 0) return 0;\r\n        \r\n        uint256 z = uint256(x);\r\n        uint256 y = (z + 1) / 2;\r\n        uint256 w = z;\r\n        \r\n        while (y < w) {\r\n            w = y;\r\n            y = (z / y + y) / 2;\r\n        }\r\n        \r\n        return int256(w);\r\n    }\r\n    \r\n    // Administrative functions\r\n    function setOutbreakRadius(uint256 _newRadius) public onlyOwner {\r\n        outbreakRadius = _newRadius;\r\n    }\r\n    \r\n    function getInfectedCount() public view returns (uint256) {\r\n        return infectedIndividuals.length;\r\n    }\r\n    \r\n    function getOutbreakLocationsCount() public view returns (uint256) {\r\n        return outbreakLocations.length;\r\n    }\r\n    \r\n    // Get all outbreak locations for display on the frontend\r\n    function getAllOutbreakLocations() public view returns (string[] memory locations, uint256[] memory counts) {\r\n        locations = new string[](outbreakLocations.length);\r\n        counts = new uint256[](outbreakLocations.length);\r\n        \r\n        for (uint256 i = 0; i < outbreakLocations.length; i++) {\r\n            locations[i] = outbreakLocations[i].location;\r\n            counts[i] = outbreakLocations[i].infectedCount;\r\n        }\r\n        \r\n        return (locations, counts);\r\n    }\r\n    \r\n    // Function to query if a user has been in proximity to any infected individuals\r\n    function checkExposureRisk(string memory _userLocation, uint256 _timeThreshold) public view returns (bool exposed, uint256 exposureCount) {\r\n        uint256 currentTime = block.timestamp;\r\n        exposed = false;\r\n        exposureCount = 0;\r\n        \r\n        for (uint256 i = 0; i < infectedIndividuals.length; i++) {\r\n            // Skip records older than the threshold\r\n            if (currentTime - infectedIndividuals[i].timestamp > _timeThreshold) {\r\n                continue;\r\n            }\r\n            \r\n            (bool inRadius, ) = isWithinRadius(_userLocation, infectedIndividuals[i].location, outbreakRadius);\r\n            \r\n            if (inRadius) {\r\n                exposed = true;\r\n                exposureCount++;\r\n            }\r\n        }\r\n        \r\n        return (exposed, exposureCount);\r\n    }\r\n}",
  "sourcePath": "C:\\Users\\91636\\Documents\\GitHub\\track-outbreak-blockchain\\blockchain\\contracts\\OutbreakTracking.sol",
  "compiler": {
    "name": "solc",
    "version": "0.8.0+commit.c7dfd78e.Emscripten.clang"
  },
  "schemaVersion": "3.4.16",
  "updatedAt": "2025-05-23T07:00:18.441Z",
  "networkType": "ethereum",
  "devdoc": {
    "kind": "dev",
    "methods": {},
    "version": 1
  },
  "userdoc": {
    "kind": "user",
    "methods": {},
    "version": 1
  }
}